{
  "contractName": "Voting",
  "abi": [
    {
      "constant": true,
      "inputs": [
        {
          "name": "candidateName",
          "type": "bytes32"
        }
      ],
      "name": "totalVotesFor",
      "outputs": [
        {
          "name": "",
          "type": "uint8"
        }
      ],
      "payable": false,
      "stateMutability": "view",
      "type": "function"
    },
    {
      "constant": true,
      "inputs": [],
      "name": "getValidCandidates",
      "outputs": [
        {
          "name": "",
          "type": "bytes32[]"
        }
      ],
      "payable": false,
      "stateMutability": "view",
      "type": "function"
    },
    {
      "constant": false,
      "inputs": [
        {
          "name": "candidateName",
          "type": "bytes32"
        }
      ],
      "name": "voteForCandidate",
      "outputs": [],
      "payable": false,
      "stateMutability": "nonpayable",
      "type": "function"
    },
    {
      "inputs": [
        {
          "name": "candidateList",
          "type": "bytes32[]"
        }
      ],
      "payable": false,
      "stateMutability": "nonpayable",
      "type": "constructor"
    }
  ],
  "bytecode": "0x6060604052341561000f57600080fd5b6040516103d63803806103d68339810160405280805182019190505060008090505b81518160ff161015610098576001806000848460ff1681518110151561005357fe5b906020019060200201516000191660001916815260200190815260200160002060006101000a81548160ff021916908360ff1602179055508080600101915050610031565b81600090805190602001906100ae9291906100b6565b50505061012e565b8280548282559060005260206000209081019282156100f8579160200282015b828111156100f75782518290600019169055916020019190600101906100d6565b5b5090506101059190610109565b5090565b61012b91905b8082111561012757600081600090555060010161010f565b5090565b90565b6102998061013d6000396000f300606060405260043610610057576000357c0100000000000000000000000000000000000000000000000000000000900463ffffffff1680632f265cf71461005c578063933cb96e1461009d578063cc9ab26714610107575b600080fd5b341561006757600080fd5b61008160048080356000191690602001909190505061012e565b604051808260ff1660ff16815260200191505060405180910390f35b34156100a857600080fd5b6100b0610160565b6040518080602001828103825283818151815260200191508051906020019060200280838360005b838110156100f35780820151818401526020810190506100d8565b505050509050019250505060405180910390f35b341561011257600080fd5b61012c6004808035600019169060200190919050506101c2565b005b600060016000836000191660001916815260200190815260200160002060009054906101000a900460ff169050919050565b610168610259565b60008054806020026020016040519081016040528092919081815260200182805480156101b857602002820191906000526020600020905b815460001916815260200190600101908083116101a0575b5050505050905090565b806101cc81610221565b15156101d757600080fd5b6001806000846000191660001916815260200190815260200160002060008282829054906101000a900460ff160192506101000a81548160ff021916908360ff1602179055505050565b60008060016000846000191660001916815260200190815260200160002060009054906101000a900460ff1660ff1614159050919050565b6020604051908101604052806000815250905600a165627a7a72305820c440fd4fea500c6480dda319c67735c619b744a832c8b81dcc034832a31763680029",
  "source": "pragma solidity ^0.4.18;\n// We have to specify what version of compiler this code will compile with\n\ncontract Voting {\n  /* mapping field below is equivalent to an associative array or hash.\n  The key of the mapping is candidate name stored as type bytes32 and value is\n  an unsigned integer to store the vote count\n  */\n\n  bytes32[] private validCandidates;\n  mapping (bytes32 => uint8) private votesForCandidate;\n\n  /* This is the constructor which will be called once when you\n  deploy the contract to the blockchain. When we deploy the contract,\n  we will pass an array of candidates who will be contesting in the election\n  */\n  function Voting(bytes32[] candidateList) public {\n    for (uint8 i = 0; i < candidateList.length; i++) {\n      votesForCandidate[candidateList[i]] = 1;\n    }\n    validCandidates = candidateList;\n  }\n\n  // This function returns the total votes a candidate has received so far\n  function totalVotesFor(bytes32 candidateName) view public returns (uint8) {\n    return votesForCandidate[candidateName];\n  }\n\n  // This function increments the vote count for the specified candidate. This\n  // is equivalent to casting a vote\n  function voteForCandidate(bytes32 candidateName) public onlyForValidCandidate(candidateName) {\n    votesForCandidate[candidateName] += 1;\n  }\n\n  function isValidCandidate(bytes32 candidateName) view private returns (bool)  {\n    return votesForCandidate[candidateName] != 0;\n  }\n\n  function getValidCandidates() view public returns (bytes32[]) {\n    return validCandidates;\n  }\n\n  modifier onlyForValidCandidate(bytes32 candidateName) {\n    require(isValidCandidate(candidateName));\n    _;\n  }\n}\n",
  "sourcePath": "/home/huynhtastic/dev/ethereum-hello-world/contracts/Voting.sol",
  "compiler": {
    "name": "solc",
    "version": "0.4.18+commit.9cf6e910.Emscripten.clang"
  },
  "schemaVersion": "1.0.1",
  "updatedAt": "2017-11-16T07:13:34.743Z"
}